{
  "address": "0xEf01C8986d174D5d94978411f4C97BEDf1510915",
  "abi": [
    {
      "inputs": [
        {
          "internalType": "address",
          "name": "vrfCoordinatorV2",
          "type": "address"
        },
        {
          "internalType": "uint256",
          "name": "_entranceFee",
          "type": "uint256"
        },
        {
          "internalType": "bytes32",
          "name": "gasLane",
          "type": "bytes32"
        },
        {
          "internalType": "uint64",
          "name": "subscriptionId",
          "type": "uint64"
        },
        {
          "internalType": "uint32",
          "name": "callbackGasLimit",
          "type": "uint32"
        },
        {
          "internalType": "uint256",
          "name": "interval",
          "type": "uint256"
        }
      ],
      "stateMutability": "nonpayable",
      "type": "constructor"
    },
    {
      "inputs": [
        {
          "internalType": "address",
          "name": "have",
          "type": "address"
        },
        {
          "internalType": "address",
          "name": "want",
          "type": "address"
        }
      ],
      "name": "OnlyCoordinatorCanFulfill",
      "type": "error"
    },
    {
      "inputs": [],
      "name": "Raffle__NotEnoughETHEntered",
      "type": "error"
    },
    {
      "inputs": [],
      "name": "Raffle__NotOpen",
      "type": "error"
    },
    {
      "inputs": [],
      "name": "Raffle__TransferFailed",
      "type": "error"
    },
    {
      "inputs": [
        {
          "internalType": "uint256",
          "name": "currentBalance",
          "type": "uint256"
        },
        {
          "internalType": "uint256",
          "name": "numPlayers",
          "type": "uint256"
        },
        {
          "internalType": "uint256",
          "name": "raffleState",
          "type": "uint256"
        }
      ],
      "name": "Raffle__UpkeepNotNeeded",
      "type": "error"
    },
    {
      "anonymous": false,
      "inputs": [
        {
          "indexed": true,
          "internalType": "address",
          "name": "player",
          "type": "address"
        }
      ],
      "name": "Raffle__Enter",
      "type": "event"
    },
    {
      "anonymous": false,
      "inputs": [
        {
          "indexed": true,
          "internalType": "uint256",
          "name": "requestId",
          "type": "uint256"
        }
      ],
      "name": "RequestedRaffleWinner",
      "type": "event"
    },
    {
      "anonymous": false,
      "inputs": [
        {
          "indexed": true,
          "internalType": "address",
          "name": "winner",
          "type": "address"
        }
      ],
      "name": "WinnerPicked",
      "type": "event"
    },
    {
      "inputs": [
        {
          "internalType": "bytes",
          "name": "",
          "type": "bytes"
        }
      ],
      "name": "checkUpkeep",
      "outputs": [
        {
          "internalType": "bool",
          "name": "upkeepNeeded",
          "type": "bool"
        },
        {
          "internalType": "bytes",
          "name": "",
          "type": "bytes"
        }
      ],
      "stateMutability": "view",
      "type": "function"
    },
    {
      "inputs": [],
      "name": "enterRaffle",
      "outputs": [],
      "stateMutability": "payable",
      "type": "function"
    },
    {
      "inputs": [],
      "name": "getEntranceFee",
      "outputs": [
        {
          "internalType": "uint256",
          "name": "",
          "type": "uint256"
        }
      ],
      "stateMutability": "view",
      "type": "function"
    },
    {
      "inputs": [],
      "name": "getInterval",
      "outputs": [
        {
          "internalType": "uint256",
          "name": "",
          "type": "uint256"
        }
      ],
      "stateMutability": "view",
      "type": "function"
    },
    {
      "inputs": [],
      "name": "getLastTimeStamp",
      "outputs": [
        {
          "internalType": "uint256",
          "name": "",
          "type": "uint256"
        }
      ],
      "stateMutability": "view",
      "type": "function"
    },
    {
      "inputs": [],
      "name": "getNumWords",
      "outputs": [
        {
          "internalType": "uint256",
          "name": "",
          "type": "uint256"
        }
      ],
      "stateMutability": "pure",
      "type": "function"
    },
    {
      "inputs": [],
      "name": "getNumberOfPlayers",
      "outputs": [
        {
          "internalType": "uint256",
          "name": "",
          "type": "uint256"
        }
      ],
      "stateMutability": "view",
      "type": "function"
    },
    {
      "inputs": [
        {
          "internalType": "uint256",
          "name": "index",
          "type": "uint256"
        }
      ],
      "name": "getPlayer",
      "outputs": [
        {
          "internalType": "address",
          "name": "",
          "type": "address"
        }
      ],
      "stateMutability": "view",
      "type": "function"
    },
    {
      "inputs": [],
      "name": "getRaffleState",
      "outputs": [
        {
          "internalType": "enum Raffle.RaffleState",
          "name": "",
          "type": "uint8"
        }
      ],
      "stateMutability": "view",
      "type": "function"
    },
    {
      "inputs": [],
      "name": "getRecentWinner",
      "outputs": [
        {
          "internalType": "address",
          "name": "",
          "type": "address"
        }
      ],
      "stateMutability": "view",
      "type": "function"
    },
    {
      "inputs": [],
      "name": "getRequestConfirmations",
      "outputs": [
        {
          "internalType": "uint256",
          "name": "",
          "type": "uint256"
        }
      ],
      "stateMutability": "pure",
      "type": "function"
    },
    {
      "inputs": [
        {
          "internalType": "bytes",
          "name": "",
          "type": "bytes"
        }
      ],
      "name": "performUpkeep",
      "outputs": [],
      "stateMutability": "nonpayable",
      "type": "function"
    },
    {
      "inputs": [
        {
          "internalType": "uint256",
          "name": "requestId",
          "type": "uint256"
        },
        {
          "internalType": "uint256[]",
          "name": "randomWords",
          "type": "uint256[]"
        }
      ],
      "name": "rawFulfillRandomWords",
      "outputs": [],
      "stateMutability": "nonpayable",
      "type": "function"
    },
    {
      "inputs": [],
      "name": "requestRandomWinner",
      "outputs": [],
      "stateMutability": "nonpayable",
      "type": "function"
    }
  ],
  "transactionHash": "0xf12bb55a9c2097cdded26e6c63c24a5b966bdccc87ba995657b109c3112dc0fb",
  "args": [
    "0x6168499c0cFfCaCD319c818142124B7A15E857ab",
    "10000000000000000",
    "0xd89b2bf150e3b9e13446986e571fb9cab24b13cea0a43ea20a6049a85cc807cc",
    "10174",
    "500000",
    "30"
  ],
  "numDeployments": 2,
  "solcInputHash": "6f4b063bd798598a5856963c2e66b1f7",
  "bytecode": "0x6101606040523480156200001257600080fd5b5060405162001a3538038062001a358339818101604052810190620000389190620001ad565b858073ffffffffffffffffffffffffffffffffffffffff1660808173ffffffffffffffffffffffffffffffffffffffff1660601b81525050508460a081815250508573ffffffffffffffffffffffffffffffffffffffff1660c08173ffffffffffffffffffffffffffffffffffffffff1660601b815250508360e081815250508267ffffffffffffffff166101008167ffffffffffffffff1660c01b815250508163ffffffff166101208163ffffffff1660e01b815250506000600160146101000a81548160ff02191690836001811115620001195762000118620002b5565b5b0217905550426002819055508061014081815250505050505050506200036b565b6000815190506200014b81620002e9565b92915050565b600081519050620001628162000303565b92915050565b60008151905062000179816200031d565b92915050565b600081519050620001908162000337565b92915050565b600081519050620001a78162000351565b92915050565b60008060008060008060c08789031215620001cd57620001cc620002e4565b5b6000620001dd89828a016200013a565b9650506020620001f089828a0162000168565b95505060406200020389828a0162000151565b94505060606200021689828a0162000196565b93505060806200022989828a016200017f565b92505060a06200023c89828a0162000168565b9150509295509295509295565b6000620002568262000267565b9050919050565b6000819050919050565b600073ffffffffffffffffffffffffffffffffffffffff82169050919050565b6000819050919050565b600063ffffffff82169050919050565b600067ffffffffffffffff82169050919050565b7f4e487b7100000000000000000000000000000000000000000000000000000000600052602160045260246000fd5b600080fd5b620002f48162000249565b81146200030057600080fd5b50565b6200030e816200025d565b81146200031a57600080fd5b50565b620003288162000287565b81146200033457600080fd5b50565b620003428162000291565b81146200034e57600080fd5b50565b6200035c81620002a1565b81146200036857600080fd5b50565b60805160601c60a05160c05160601c60e0516101005160c01c6101205160e01c6101405161163262000403600039600081816109910152610a3a0152600081816106cd015261086d0152600081816106aa015261084a015260008181610689015261082901526000818161064d01526107ed01526000818161032c015261042901526000818161036901526103bd01526116326000f3fe6080604052600436106100dd5760003560e01c806353a2c19a1161007f57806391ad27b41161005957806391ad27b41461026a578063c1c244e814610295578063e55ae4e8146102c0578063fd6673f5146102fd576100dd565b806353a2c19a146101d65780635f1b0fd8146102015780636e04ff0d1461022c576100dd565b80632cfcc539116100bb5780632cfcc539146101615780634585e33b1461016b578063473f1ddc14610194578063522a1f0b146101bf576100dd565b806309bc33a7146100e2578063115cbaf51461010d5780631fe543e314610138575b600080fd5b3480156100ee57600080fd5b506100f7610328565b6040516101049190611238565b60405180910390f35b34801561011957600080fd5b50610122610350565b60405161012f919061121d565b60405180910390f35b34801561014457600080fd5b5061015f600480360381019061015a9190611011565b610367565b005b610169610427565b005b34801561017757600080fd5b50610192600480360381019061018d9190610f21565b610596565b005b3480156101a057600080fd5b506101a9610795565b6040516101b69190611156565b60405180910390f35b3480156101cb57600080fd5b506101d46107bf565b005b3480156101e257600080fd5b506101eb610932565b6040516101f89190611238565b60405180910390f35b34801561020d57600080fd5b50610216610941565b6040516102239190611238565b60405180910390f35b34801561023857600080fd5b50610253600480360381019061024e9190610f6e565b61094e565b60405161026192919061119a565b60405180910390f35b34801561027657600080fd5b5061027f610a36565b60405161028c9190611238565b60405180910390f35b3480156102a157600080fd5b506102aa610a5e565b6040516102b79190611238565b60405180910390f35b3480156102cc57600080fd5b506102e760048036038101906102e29190610fb7565b610a68565b6040516102f49190611156565b60405180910390f35b34801561030957600080fd5b50610312610aaf565b60405161031f9190611238565b60405180910390f35b60007f0000000000000000000000000000000000000000000000000000000000000000905090565b6000600160149054906101000a900460ff16905090565b7f000000000000000000000000000000000000000000000000000000000000000073ffffffffffffffffffffffffffffffffffffffff163373ffffffffffffffffffffffffffffffffffffffff161461041957337f00000000000000000000000000000000000000000000000000000000000000006040517f1cf993f4000000000000000000000000000000000000000000000000000000008152600401610410929190611171565b60405180910390fd5b6104238282610abb565b5050565b7f0000000000000000000000000000000000000000000000000000000000000000341015610481576040517fbd4e069500000000000000000000000000000000000000000000000000000000815260040160405180910390fd5b6000600181111561049557610494611512565b5b600160149054906101000a900460ff1660018111156104b7576104b6611512565b5b146104ee576040517f1425571c00000000000000000000000000000000000000000000000000000000815260040160405180910390fd5b6000339080600181540180825580915050600190039060005260206000200160009091909190916101000a81548173ffffffffffffffffffffffffffffffffffffffff021916908373ffffffffffffffffffffffffffffffffffffffff1602179055503373ffffffffffffffffffffffffffffffffffffffff167f19603181a9303784ca18ec6572f20e443b8636231bfdced3874a429746a7dd1660405160405180910390a2565b60006105b06040518060200160405280600081525061094e565b5090508061061f5747600080549050600160149054906101000a900460ff1660018111156105e1576105e0611512565b5b6040517f584327aa00000000000000000000000000000000000000000000000000000000815260040161061693929190611253565b60405180910390fd5b60018060146101000a81548160ff0219169083600181111561064457610643611512565b5b021790555060007f000000000000000000000000000000000000000000000000000000000000000073ffffffffffffffffffffffffffffffffffffffff16635d3b1d307f00000000000000000000000000000000000000000000000000000000000000007f000000000000000000000000000000000000000000000000000000000000000060037f000000000000000000000000000000000000000000000000000000000000000060016040518663ffffffff1660e01b815260040161070e9594939291906111ca565b602060405180830381600087803b15801561072857600080fd5b505af115801561073c573d6000803e3d6000fd5b505050506040513d601f19601f820116820180604052508101906107609190610fe4565b9050807fcd6e45c8998311cab7e9d4385596cac867e20a0587194b954fa3a731c93ce78b60405160405180910390a250505050565b6000600160009054906101000a900473ffffffffffffffffffffffffffffffffffffffff16905090565b60018060146101000a81548160ff021916908360018111156107e4576107e3611512565b5b021790555060007f000000000000000000000000000000000000000000000000000000000000000073ffffffffffffffffffffffffffffffffffffffff16635d3b1d307f00000000000000000000000000000000000000000000000000000000000000007f000000000000000000000000000000000000000000000000000000000000000060037f000000000000000000000000000000000000000000000000000000000000000060016040518663ffffffff1660e01b81526004016108ae9594939291906111ca565b602060405180830381600087803b1580156108c857600080fd5b505af11580156108dc573d6000803e3d6000fd5b505050506040513d601f19601f820116820180604052508101906109009190610fe4565b9050807fcd6e45c8998311cab7e9d4385596cac867e20a0587194b954fa3a731c93ce78b60405160405180910390a250565b6000600163ffffffff16905090565b6000600361ffff16905090565b600060606000600160149054906101000a900460ff16600181111561097657610975611512565b5b6000600181111561098a57610989611512565b5b14905060007f0000000000000000000000000000000000000000000000000000000000000000600254426109be9190611333565b119050600080600080549050119050600080471190508280156109de5750835b80156109e75750805b80156109f05750815b9550856040518060400160405280600381526020017f30783000000000000000000000000000000000000000000000000000000000008152509550955050505050915091565b60007f0000000000000000000000000000000000000000000000000000000000000000905090565b6000600254905090565b6000808281548110610a7d57610a7c611541565b5b9060005260206000200160009054906101000a900473ffffffffffffffffffffffffffffffffffffffff169050919050565b60008080549050905090565b6000808054905082600081518110610ad657610ad5611541565b5b6020026020010151610ae89190611483565b90506000808281548110610aff57610afe611541565b5b9060005260206000200160009054906101000a900473ffffffffffffffffffffffffffffffffffffffff16905080600160006101000a81548173ffffffffffffffffffffffffffffffffffffffff021916908373ffffffffffffffffffffffffffffffffffffffff1602179055506000600160146101000a81548160ff02191690836001811115610b9357610b92611512565b5b0217905550600067ffffffffffffffff811115610bb357610bb2611570565b5b604051908082528060200260200182016040528015610be15781602001602082028036833780820191505090505b5060009080519060200190610bf7929190610cec565b504260028190555060008173ffffffffffffffffffffffffffffffffffffffff1647604051610c2590611141565b60006040518083038185875af1925050503d8060008114610c62576040519150601f19603f3d011682016040523d82523d6000602084013e610c67565b606091505b5050905080610ca2576040517fa1d04b3900000000000000000000000000000000000000000000000000000000815260040160405180910390fd5b8173ffffffffffffffffffffffffffffffffffffffff167f5b690ec4a06fe979403046eaeea5b3ce38524683c3001f662c8b5a829632f7df60405160405180910390a25050505050565b828054828255906000526020600020908101928215610d65579160200282015b82811115610d645782518260006101000a81548173ffffffffffffffffffffffffffffffffffffffff021916908373ffffffffffffffffffffffffffffffffffffffff16021790555091602001919060010190610d0c565b5b509050610d729190610d76565b5090565b5b80821115610d8f576000816000905550600101610d77565b5090565b6000610da6610da1846112af565b61128a565b90508083825260208201905082856020860282011115610dc957610dc86115a9565b5b60005b85811015610df95781610ddf8882610ef7565b845260208401935060208301925050600181019050610dcc565b5050509392505050565b6000610e16610e11846112db565b61128a565b905082815260208101848484011115610e3257610e316115ae565b5b610e3d848285611410565b509392505050565b600082601f830112610e5a57610e596115a4565b5b8135610e6a848260208601610d93565b91505092915050565b60008083601f840112610e8957610e886115a4565b5b8235905067ffffffffffffffff811115610ea657610ea561159f565b5b602083019150836001820283011115610ec257610ec16115a9565b5b9250929050565b600082601f830112610ede57610edd6115a4565b5b8135610eee848260208601610e03565b91505092915050565b600081359050610f06816115e5565b92915050565b600081519050610f1b816115e5565b92915050565b60008060208385031215610f3857610f376115b8565b5b600083013567ffffffffffffffff811115610f5657610f556115b3565b5b610f6285828601610e73565b92509250509250929050565b600060208284031215610f8457610f836115b8565b5b600082013567ffffffffffffffff811115610fa257610fa16115b3565b5b610fae84828501610ec9565b91505092915050565b600060208284031215610fcd57610fcc6115b8565b5b6000610fdb84828501610ef7565b91505092915050565b600060208284031215610ffa57610ff96115b8565b5b600061100884828501610f0c565b91505092915050565b60008060408385031215611028576110276115b8565b5b600061103685828601610ef7565b925050602083013567ffffffffffffffff811115611057576110566115b3565b5b61106385828601610e45565b9150509250929050565b61107681611367565b82525050565b61108581611379565b82525050565b61109481611385565b82525050565b60006110a58261130c565b6110af8185611317565b93506110bf81856020860161141f565b6110c8816115bd565b840191505092915050565b6110dc816113fe565b82525050565b60006110ef600083611328565b91506110fa826115ce565b600082019050919050565b61110e816113a2565b82525050565b61111d816113d0565b82525050565b61112c816113da565b82525050565b61113b816113ea565b82525050565b600061114c826110e2565b9150819050919050565b600060208201905061116b600083018461106d565b92915050565b6000604082019050611186600083018561106d565b611193602083018461106d565b9392505050565b60006040820190506111af600083018561107c565b81810360208301526111c1818461109a565b90509392505050565b600060a0820190506111df600083018861108b565b6111ec6020830187611132565b6111f96040830186611105565b6112066060830185611123565b6112136080830184611123565b9695505050505050565b600060208201905061123260008301846110d3565b92915050565b600060208201905061124d6000830184611114565b92915050565b60006060820190506112686000830186611114565b6112756020830185611114565b6112826040830184611114565b949350505050565b60006112946112a5565b90506112a08282611452565b919050565b6000604051905090565b600067ffffffffffffffff8211156112ca576112c9611570565b5b602082029050602081019050919050565b600067ffffffffffffffff8211156112f6576112f5611570565b5b6112ff826115bd565b9050602081019050919050565b600081519050919050565b600082825260208201905092915050565b600081905092915050565b600061133e826113d0565b9150611349836113d0565b92508282101561135c5761135b6114b4565b5b828203905092915050565b6000611372826113b0565b9050919050565b60008115159050919050565b6000819050919050565b600081905061139d826115d1565b919050565b600061ffff82169050919050565b600073ffffffffffffffffffffffffffffffffffffffff82169050919050565b6000819050919050565b600063ffffffff82169050919050565b600067ffffffffffffffff82169050919050565b60006114098261138f565b9050919050565b82818337600083830152505050565b60005b8381101561143d578082015181840152602081019050611422565b8381111561144c576000848401525b50505050565b61145b826115bd565b810181811067ffffffffffffffff8211171561147a57611479611570565b5b80604052505050565b600061148e826113d0565b9150611499836113d0565b9250826114a9576114a86114e3565b5b828206905092915050565b7f4e487b7100000000000000000000000000000000000000000000000000000000600052601160045260246000fd5b7f4e487b7100000000000000000000000000000000000000000000000000000000600052601260045260246000fd5b7f4e487b7100000000000000000000000000000000000000000000000000000000600052602160045260246000fd5b7f4e487b7100000000000000000000000000000000000000000000000000000000600052603260045260246000fd5b7f4e487b7100000000000000000000000000000000000000000000000000000000600052604160045260246000fd5b600080fd5b600080fd5b600080fd5b600080fd5b600080fd5b600080fd5b6000601f19601f8301169050919050565b50565b600281106115e2576115e1611512565b5b50565b6115ee816113d0565b81146115f957600080fd5b5056fea26469706673582212201a6e23092f659d2f0afed1aabe5f1d7b726155dc6fd813165326bf6a1b03233464736f6c63430008070033",
  "devdoc": {
    "author": "OmBayus",
    "details": "This implements the Chainlink VRF Version 2",
    "kind": "dev",
    "methods": {
      "performUpkeep(bytes)": {
        "details": "Once `checkUpkeep` is returning `true`, this function is called and it kicks off a Chainlink VRF call to get a random winner."
      }
    },
    "title": "A sample Raffle Contract",
    "version": 1
  },
  "userdoc": {
    "kind": "user",
    "methods": {
      "getRaffleState()": {
        "notice": "Getter Functions "
      }
    },
    "notice": "This contract is for creating a sample raffle contract",
    "version": 1
  },
  "storageLayout": {
    "storage": [
      {
        "astId": 891,
        "contract": "contracts/Raffle.sol:Raffle",
        "label": "s_players",
        "offset": 0,
        "slot": "0",
        "type": "t_array(t_address_payable)dyn_storage"
      },
      {
        "astId": 908,
        "contract": "contracts/Raffle.sol:Raffle",
        "label": "s_recentWinner",
        "offset": 0,
        "slot": "1",
        "type": "t_address"
      },
      {
        "astId": 911,
        "contract": "contracts/Raffle.sol:Raffle",
        "label": "s_raffleState",
        "offset": 20,
        "slot": "1",
        "type": "t_enum(RaffleState)886"
      },
      {
        "astId": 913,
        "contract": "contracts/Raffle.sol:Raffle",
        "label": "s_lastTimeStamp",
        "offset": 0,
        "slot": "2",
        "type": "t_uint256"
      }
    ],
    "types": {
      "t_address": {
        "encoding": "inplace",
        "label": "address",
        "numberOfBytes": "20"
      },
      "t_address_payable": {
        "encoding": "inplace",
        "label": "address payable",
        "numberOfBytes": "20"
      },
      "t_array(t_address_payable)dyn_storage": {
        "base": "t_address_payable",
        "encoding": "dynamic_array",
        "label": "address payable[]",
        "numberOfBytes": "32"
      },
      "t_enum(RaffleState)886": {
        "encoding": "inplace",
        "label": "enum Raffle.RaffleState",
        "numberOfBytes": "1"
      },
      "t_uint256": {
        "encoding": "inplace",
        "label": "uint256",
        "numberOfBytes": "32"
      }
    }
  }
}