{
  "address": "0xCf7Ed3AccA5a467e9e704C703E8D87F634fB0Fc9",
  "abi": [
    {
      "inputs": [
        {
          "internalType": "address",
          "name": "vrfCoordinatorV2",
          "type": "address"
        },
        {
          "internalType": "uint256",
          "name": "_entranceFee",
          "type": "uint256"
        },
        {
          "internalType": "bytes32",
          "name": "gasLane",
          "type": "bytes32"
        },
        {
          "internalType": "uint64",
          "name": "subscriptionId",
          "type": "uint64"
        },
        {
          "internalType": "uint32",
          "name": "callbackGasLimit",
          "type": "uint32"
        },
        {
          "internalType": "uint256",
          "name": "interval",
          "type": "uint256"
        }
      ],
      "stateMutability": "nonpayable",
      "type": "constructor"
    },
    {
      "inputs": [
        {
          "internalType": "address",
          "name": "have",
          "type": "address"
        },
        {
          "internalType": "address",
          "name": "want",
          "type": "address"
        }
      ],
      "name": "OnlyCoordinatorCanFulfill",
      "type": "error"
    },
    {
      "inputs": [],
      "name": "Raffle__NotEnoughETHEntered",
      "type": "error"
    },
    {
      "inputs": [],
      "name": "Raffle__NotOpen",
      "type": "error"
    },
    {
      "inputs": [],
      "name": "Raffle__TransferFailed",
      "type": "error"
    },
    {
      "inputs": [
        {
          "internalType": "uint256",
          "name": "currentBalance",
          "type": "uint256"
        },
        {
          "internalType": "uint256",
          "name": "numPlayers",
          "type": "uint256"
        },
        {
          "internalType": "uint256",
          "name": "raffleState",
          "type": "uint256"
        }
      ],
      "name": "Raffle__UpkeepNotNeeded",
      "type": "error"
    },
    {
      "anonymous": false,
      "inputs": [
        {
          "indexed": true,
          "internalType": "address",
          "name": "player",
          "type": "address"
        }
      ],
      "name": "Raffle__Enter",
      "type": "event"
    },
    {
      "anonymous": false,
      "inputs": [
        {
          "indexed": true,
          "internalType": "uint256",
          "name": "requestId",
          "type": "uint256"
        }
      ],
      "name": "RequestedRaffleWinner",
      "type": "event"
    },
    {
      "anonymous": false,
      "inputs": [
        {
          "indexed": true,
          "internalType": "address",
          "name": "winner",
          "type": "address"
        }
      ],
      "name": "WinnerPicked",
      "type": "event"
    },
    {
      "inputs": [
        {
          "internalType": "bytes",
          "name": "",
          "type": "bytes"
        }
      ],
      "name": "checkUpkeep",
      "outputs": [
        {
          "internalType": "bool",
          "name": "upkeepNeeded",
          "type": "bool"
        },
        {
          "internalType": "bytes",
          "name": "",
          "type": "bytes"
        }
      ],
      "stateMutability": "view",
      "type": "function"
    },
    {
      "inputs": [],
      "name": "enterRaffle",
      "outputs": [],
      "stateMutability": "payable",
      "type": "function"
    },
    {
      "inputs": [],
      "name": "getEntranceFee",
      "outputs": [
        {
          "internalType": "uint256",
          "name": "",
          "type": "uint256"
        }
      ],
      "stateMutability": "view",
      "type": "function"
    },
    {
      "inputs": [],
      "name": "getInterval",
      "outputs": [
        {
          "internalType": "uint256",
          "name": "",
          "type": "uint256"
        }
      ],
      "stateMutability": "view",
      "type": "function"
    },
    {
      "inputs": [],
      "name": "getLastTimeStamp",
      "outputs": [
        {
          "internalType": "uint256",
          "name": "",
          "type": "uint256"
        }
      ],
      "stateMutability": "view",
      "type": "function"
    },
    {
      "inputs": [],
      "name": "getNumWords",
      "outputs": [
        {
          "internalType": "uint256",
          "name": "",
          "type": "uint256"
        }
      ],
      "stateMutability": "pure",
      "type": "function"
    },
    {
      "inputs": [],
      "name": "getNumberOfPlayers",
      "outputs": [
        {
          "internalType": "uint256",
          "name": "",
          "type": "uint256"
        }
      ],
      "stateMutability": "view",
      "type": "function"
    },
    {
      "inputs": [
        {
          "internalType": "uint256",
          "name": "index",
          "type": "uint256"
        }
      ],
      "name": "getPlayer",
      "outputs": [
        {
          "internalType": "address",
          "name": "",
          "type": "address"
        }
      ],
      "stateMutability": "view",
      "type": "function"
    },
    {
      "inputs": [],
      "name": "getRaffleState",
      "outputs": [
        {
          "internalType": "enum Raffle.RaffleState",
          "name": "",
          "type": "uint8"
        }
      ],
      "stateMutability": "view",
      "type": "function"
    },
    {
      "inputs": [],
      "name": "getRecentWinner",
      "outputs": [
        {
          "internalType": "address",
          "name": "",
          "type": "address"
        }
      ],
      "stateMutability": "view",
      "type": "function"
    },
    {
      "inputs": [],
      "name": "getRequestConfirmations",
      "outputs": [
        {
          "internalType": "uint256",
          "name": "",
          "type": "uint256"
        }
      ],
      "stateMutability": "pure",
      "type": "function"
    },
    {
      "inputs": [
        {
          "internalType": "bytes",
          "name": "",
          "type": "bytes"
        }
      ],
      "name": "performUpkeep",
      "outputs": [],
      "stateMutability": "nonpayable",
      "type": "function"
    },
    {
      "inputs": [
        {
          "internalType": "uint256",
          "name": "requestId",
          "type": "uint256"
        },
        {
          "internalType": "uint256[]",
          "name": "randomWords",
          "type": "uint256[]"
        }
      ],
      "name": "rawFulfillRandomWords",
      "outputs": [],
      "stateMutability": "nonpayable",
      "type": "function"
    },
    {
      "inputs": [],
      "name": "requestRandomWinner",
      "outputs": [],
      "stateMutability": "nonpayable",
      "type": "function"
    }
  ],
  "transactionHash": "0xb20a109323d7a900e676ac1797dbf75e1273b386c8118e9880be42905827288d",
  "args": [
    "0x5FbDB2315678afecb367f032d93F642f64180aa3",
    "10000000000000000",
    "0xd89b2bf150e3b9e13446986e571fb9cab24b13cea0a43ea20a6049a85cc807cc",
    "1",
    "500000",
    "30"
  ],
  "numDeployments": 1,
  "solcInputHash": "df496cdc9b344cad487e39176c7c975c",
  "bytecode": "0x6101606040523480156200001257600080fd5b5060405162001a1638038062001a16833981810160405281019062000038919062000294565b858073ffffffffffffffffffffffffffffffffffffffff1660808173ffffffffffffffffffffffffffffffffffffffff1681525050508460a081815250508573ffffffffffffffffffffffffffffffffffffffff1660c08173ffffffffffffffffffffffffffffffffffffffff16815250508360e081815250508267ffffffffffffffff166101008167ffffffffffffffff16815250508163ffffffff166101208163ffffffff16815250506000600160146101000a81548160ff021916908360018111156200010d576200010c62000330565b5b0217905550426002819055508061014081815250505050505050506200035f565b600080fd5b600073ffffffffffffffffffffffffffffffffffffffff82169050919050565b6000620001608262000133565b9050919050565b620001728162000153565b81146200017e57600080fd5b50565b600081519050620001928162000167565b92915050565b6000819050919050565b620001ad8162000198565b8114620001b957600080fd5b50565b600081519050620001cd81620001a2565b92915050565b6000819050919050565b620001e881620001d3565b8114620001f457600080fd5b50565b6000815190506200020881620001dd565b92915050565b600067ffffffffffffffff82169050919050565b6200022d816200020e565b81146200023957600080fd5b50565b6000815190506200024d8162000222565b92915050565b600063ffffffff82169050919050565b6200026e8162000253565b81146200027a57600080fd5b50565b6000815190506200028e8162000263565b92915050565b60008060008060008060c08789031215620002b457620002b36200012e565b5b6000620002c489828a0162000181565b9650506020620002d789828a01620001bc565b9550506040620002ea89828a01620001f7565b9450506060620002fd89828a016200023c565b93505060806200031089828a016200027d565b92505060a06200032389828a01620001bc565b9150509295509295509295565b7f4e487b7100000000000000000000000000000000000000000000000000000000600052602160045260246000fd5b60805160a05160c05160e05161010051610120516101405161162b620003eb600039600081816109910152610a3a0152600081816106cd015261086d0152600081816106aa015261084a015260008181610689015261082901526000818161064d01526107ed01526000818161032c015261042901526000818161036901526103bd015261162b6000f3fe6080604052600436106100dd5760003560e01c806353a2c19a1161007f57806391ad27b41161005957806391ad27b41461026a578063c1c244e814610295578063e55ae4e8146102c0578063fd6673f5146102fd576100dd565b806353a2c19a146101d65780635f1b0fd8146102015780636e04ff0d1461022c576100dd565b80632cfcc539116100bb5780632cfcc539146101615780634585e33b1461016b578063473f1ddc14610194578063522a1f0b146101bf576100dd565b806309bc33a7146100e2578063115cbaf51461010d5780631fe543e314610138575b600080fd5b3480156100ee57600080fd5b506100f7610328565b6040516101049190610dac565b60405180910390f35b34801561011957600080fd5b50610122610350565b60405161012f9190610e3e565b60405180910390f35b34801561014457600080fd5b5061015f600480360381019061015a9190610ff2565b610367565b005b610169610427565b005b34801561017757600080fd5b50610192600480360381019061018d91906110a9565b610596565b005b3480156101a057600080fd5b506101a9610795565b6040516101b69190611137565b60405180910390f35b3480156101cb57600080fd5b506101d46107bf565b005b3480156101e257600080fd5b506101eb610932565b6040516101f89190610dac565b60405180910390f35b34801561020d57600080fd5b50610216610941565b6040516102239190610dac565b60405180910390f35b34801561023857600080fd5b50610253600480360381019061024e9190611207565b61094e565b6040516102619291906112f3565b60405180910390f35b34801561027657600080fd5b5061027f610a36565b60405161028c9190610dac565b60405180910390f35b3480156102a157600080fd5b506102aa610a5e565b6040516102b79190610dac565b60405180910390f35b3480156102cc57600080fd5b506102e760048036038101906102e29190611323565b610a68565b6040516102f49190611137565b60405180910390f35b34801561030957600080fd5b50610312610aaf565b60405161031f9190610dac565b60405180910390f35b60007f0000000000000000000000000000000000000000000000000000000000000000905090565b6000600160149054906101000a900460ff16905090565b7f000000000000000000000000000000000000000000000000000000000000000073ffffffffffffffffffffffffffffffffffffffff163373ffffffffffffffffffffffffffffffffffffffff161461041957337f00000000000000000000000000000000000000000000000000000000000000006040517f1cf993f4000000000000000000000000000000000000000000000000000000008152600401610410929190611350565b60405180910390fd5b6104238282610abb565b5050565b7f0000000000000000000000000000000000000000000000000000000000000000341015610481576040517fbd4e069500000000000000000000000000000000000000000000000000000000815260040160405180910390fd5b6000600181111561049557610494610dc7565b5b600160149054906101000a900460ff1660018111156104b7576104b6610dc7565b5b146104ee576040517f1425571c00000000000000000000000000000000000000000000000000000000815260040160405180910390fd5b6000339080600181540180825580915050600190039060005260206000200160009091909190916101000a81548173ffffffffffffffffffffffffffffffffffffffff021916908373ffffffffffffffffffffffffffffffffffffffff1602179055503373ffffffffffffffffffffffffffffffffffffffff167f19603181a9303784ca18ec6572f20e443b8636231bfdced3874a429746a7dd1660405160405180910390a2565b60006105b06040518060200160405280600081525061094e565b5090508061061f5747600080549050600160149054906101000a900460ff1660018111156105e1576105e0610dc7565b5b6040517f584327aa00000000000000000000000000000000000000000000000000000000815260040161061693929190611379565b60405180910390fd5b60018060146101000a81548160ff0219169083600181111561064457610643610dc7565b5b021790555060007f000000000000000000000000000000000000000000000000000000000000000073ffffffffffffffffffffffffffffffffffffffff16635d3b1d307f00000000000000000000000000000000000000000000000000000000000000007f000000000000000000000000000000000000000000000000000000000000000060037f000000000000000000000000000000000000000000000000000000000000000060016040518663ffffffff1660e01b815260040161070e959493929190611428565b602060405180830381600087803b15801561072857600080fd5b505af115801561073c573d6000803e3d6000fd5b505050506040513d601f19601f820116820180604052508101906107609190611490565b9050807fcd6e45c8998311cab7e9d4385596cac867e20a0587194b954fa3a731c93ce78b60405160405180910390a250505050565b6000600160009054906101000a900473ffffffffffffffffffffffffffffffffffffffff16905090565b60018060146101000a81548160ff021916908360018111156107e4576107e3610dc7565b5b021790555060007f000000000000000000000000000000000000000000000000000000000000000073ffffffffffffffffffffffffffffffffffffffff16635d3b1d307f00000000000000000000000000000000000000000000000000000000000000007f000000000000000000000000000000000000000000000000000000000000000060037f000000000000000000000000000000000000000000000000000000000000000060016040518663ffffffff1660e01b81526004016108ae959493929190611428565b602060405180830381600087803b1580156108c857600080fd5b505af11580156108dc573d6000803e3d6000fd5b505050506040513d601f19601f820116820180604052508101906109009190611490565b9050807fcd6e45c8998311cab7e9d4385596cac867e20a0587194b954fa3a731c93ce78b60405160405180910390a250565b6000600163ffffffff16905090565b6000600361ffff16905090565b600060606000600160149054906101000a900460ff16600181111561097657610975610dc7565b5b6000600181111561098a57610989610dc7565b5b14905060007f0000000000000000000000000000000000000000000000000000000000000000600254426109be91906114ec565b119050600080600080549050119050600080471190508280156109de5750835b80156109e75750805b80156109f05750815b9550856040518060400160405280600381526020017f30783000000000000000000000000000000000000000000000000000000000008152509550955050505050915091565b60007f0000000000000000000000000000000000000000000000000000000000000000905090565b6000600254905090565b6000808281548110610a7d57610a7c611520565b5b9060005260206000200160009054906101000a900473ffffffffffffffffffffffffffffffffffffffff169050919050565b60008080549050905090565b6000808054905082600081518110610ad657610ad5611520565b5b6020026020010151610ae8919061157e565b90506000808281548110610aff57610afe611520565b5b9060005260206000200160009054906101000a900473ffffffffffffffffffffffffffffffffffffffff16905080600160006101000a81548173ffffffffffffffffffffffffffffffffffffffff021916908373ffffffffffffffffffffffffffffffffffffffff1602179055506000600160146101000a81548160ff02191690836001811115610b9357610b92610dc7565b5b0217905550600067ffffffffffffffff811115610bb357610bb2610eaf565b5b604051908082528060200260200182016040528015610be15781602001602082028036833780820191505090505b5060009080519060200190610bf7929190610cec565b504260028190555060008173ffffffffffffffffffffffffffffffffffffffff1647604051610c25906115e0565b60006040518083038185875af1925050503d8060008114610c62576040519150601f19603f3d011682016040523d82523d6000602084013e610c67565b606091505b5050905080610ca2576040517fa1d04b3900000000000000000000000000000000000000000000000000000000815260040160405180910390fd5b8173ffffffffffffffffffffffffffffffffffffffff167f5b690ec4a06fe979403046eaeea5b3ce38524683c3001f662c8b5a829632f7df60405160405180910390a25050505050565b828054828255906000526020600020908101928215610d65579160200282015b82811115610d645782518260006101000a81548173ffffffffffffffffffffffffffffffffffffffff021916908373ffffffffffffffffffffffffffffffffffffffff16021790555091602001919060010190610d0c565b5b509050610d729190610d76565b5090565b5b80821115610d8f576000816000905550600101610d77565b5090565b6000819050919050565b610da681610d93565b82525050565b6000602082019050610dc16000830184610d9d565b92915050565b7f4e487b7100000000000000000000000000000000000000000000000000000000600052602160045260246000fd5b60028110610e0757610e06610dc7565b5b50565b6000819050610e1882610df6565b919050565b6000610e2882610e0a565b9050919050565b610e3881610e1d565b82525050565b6000602082019050610e536000830184610e2f565b92915050565b6000604051905090565b600080fd5b600080fd5b610e7681610d93565b8114610e8157600080fd5b50565b600081359050610e9381610e6d565b92915050565b600080fd5b6000601f19601f8301169050919050565b7f4e487b7100000000000000000000000000000000000000000000000000000000600052604160045260246000fd5b610ee782610e9e565b810181811067ffffffffffffffff82111715610f0657610f05610eaf565b5b80604052505050565b6000610f19610e59565b9050610f258282610ede565b919050565b600067ffffffffffffffff821115610f4557610f44610eaf565b5b602082029050602081019050919050565b600080fd5b6000610f6e610f6984610f2a565b610f0f565b90508083825260208201905060208402830185811115610f9157610f90610f56565b5b835b81811015610fba5780610fa68882610e84565b845260208401935050602081019050610f93565b5050509392505050565b600082601f830112610fd957610fd8610e99565b5b8135610fe9848260208601610f5b565b91505092915050565b6000806040838503121561100957611008610e63565b5b600061101785828601610e84565b925050602083013567ffffffffffffffff81111561103857611037610e68565b5b61104485828601610fc4565b9150509250929050565b600080fd5b60008083601f84011261106957611068610e99565b5b8235905067ffffffffffffffff8111156110865761108561104e565b5b6020830191508360018202830111156110a2576110a1610f56565b5b9250929050565b600080602083850312156110c0576110bf610e63565b5b600083013567ffffffffffffffff8111156110de576110dd610e68565b5b6110ea85828601611053565b92509250509250929050565b600073ffffffffffffffffffffffffffffffffffffffff82169050919050565b6000611121826110f6565b9050919050565b61113181611116565b82525050565b600060208201905061114c6000830184611128565b92915050565b600080fd5b600067ffffffffffffffff82111561117257611171610eaf565b5b61117b82610e9e565b9050602081019050919050565b82818337600083830152505050565b60006111aa6111a584611157565b610f0f565b9050828152602081018484840111156111c6576111c5611152565b5b6111d1848285611188565b509392505050565b600082601f8301126111ee576111ed610e99565b5b81356111fe848260208601611197565b91505092915050565b60006020828403121561121d5761121c610e63565b5b600082013567ffffffffffffffff81111561123b5761123a610e68565b5b611247848285016111d9565b91505092915050565b60008115159050919050565b61126581611250565b82525050565b600081519050919050565b600082825260208201905092915050565b60005b838110156112a557808201518184015260208101905061128a565b838111156112b4576000848401525b50505050565b60006112c58261126b565b6112cf8185611276565b93506112df818560208601611287565b6112e881610e9e565b840191505092915050565b6000604082019050611308600083018561125c565b818103602083015261131a81846112ba565b90509392505050565b60006020828403121561133957611338610e63565b5b600061134784828501610e84565b91505092915050565b60006040820190506113656000830185611128565b6113726020830184611128565b9392505050565b600060608201905061138e6000830186610d9d565b61139b6020830185610d9d565b6113a86040830184610d9d565b949350505050565b6000819050919050565b6113c3816113b0565b82525050565b600067ffffffffffffffff82169050919050565b6113e6816113c9565b82525050565b600061ffff82169050919050565b611403816113ec565b82525050565b600063ffffffff82169050919050565b61142281611409565b82525050565b600060a08201905061143d60008301886113ba565b61144a60208301876113dd565b61145760408301866113fa565b6114646060830185611419565b6114716080830184611419565b9695505050505050565b60008151905061148a81610e6d565b92915050565b6000602082840312156114a6576114a5610e63565b5b60006114b48482850161147b565b91505092915050565b7f4e487b7100000000000000000000000000000000000000000000000000000000600052601160045260246000fd5b60006114f782610d93565b915061150283610d93565b925082821015611515576115146114bd565b5b828203905092915050565b7f4e487b7100000000000000000000000000000000000000000000000000000000600052603260045260246000fd5b7f4e487b7100000000000000000000000000000000000000000000000000000000600052601260045260246000fd5b600061158982610d93565b915061159483610d93565b9250826115a4576115a361154f565b5b828206905092915050565b600081905092915050565b50565b60006115ca6000836115af565b91506115d5826115ba565b600082019050919050565b60006115eb826115bd565b915081905091905056fea264697066735822122051df1e6a61219f36f371d0a77b4f84cd9c6b8da7e0f44be4352e269a6b2a864564736f6c63430008090033",
  "devdoc": {
    "author": "OmBayus",
    "details": "This implements the Chainlink VRF Version 2",
    "kind": "dev",
    "methods": {
      "performUpkeep(bytes)": {
        "details": "Once `checkUpkeep` is returning `true`, this function is called and it kicks off a Chainlink VRF call to get a random winner."
      }
    },
    "title": "A sample Raffle Contract",
    "version": 1
  },
  "userdoc": {
    "kind": "user",
    "methods": {
      "getRaffleState()": {
        "notice": "Getter Functions "
      }
    },
    "notice": "This contract is for creating a sample raffle contract",
    "version": 1
  },
  "storageLayout": {
    "storage": [
      {
        "astId": 1162,
        "contract": "contracts/Raffle.sol:Raffle",
        "label": "s_players",
        "offset": 0,
        "slot": "0",
        "type": "t_array(t_address_payable)dyn_storage"
      },
      {
        "astId": 1179,
        "contract": "contracts/Raffle.sol:Raffle",
        "label": "s_recentWinner",
        "offset": 0,
        "slot": "1",
        "type": "t_address"
      },
      {
        "astId": 1182,
        "contract": "contracts/Raffle.sol:Raffle",
        "label": "s_raffleState",
        "offset": 20,
        "slot": "1",
        "type": "t_enum(RaffleState)1157"
      },
      {
        "astId": 1184,
        "contract": "contracts/Raffle.sol:Raffle",
        "label": "s_lastTimeStamp",
        "offset": 0,
        "slot": "2",
        "type": "t_uint256"
      }
    ],
    "types": {
      "t_address": {
        "encoding": "inplace",
        "label": "address",
        "numberOfBytes": "20"
      },
      "t_address_payable": {
        "encoding": "inplace",
        "label": "address payable",
        "numberOfBytes": "20"
      },
      "t_array(t_address_payable)dyn_storage": {
        "base": "t_address_payable",
        "encoding": "dynamic_array",
        "label": "address payable[]",
        "numberOfBytes": "32"
      },
      "t_enum(RaffleState)1157": {
        "encoding": "inplace",
        "label": "enum Raffle.RaffleState",
        "numberOfBytes": "1"
      },
      "t_uint256": {
        "encoding": "inplace",
        "label": "uint256",
        "numberOfBytes": "32"
      }
    }
  }
}