{
  "address": "0x04784A1b291e19cad379cf38C4934f43cE6B0505",
  "abi": [
    {
      "inputs": [
        {
          "internalType": "address",
          "name": "_priceFeed",
          "type": "address"
        }
      ],
      "stateMutability": "nonpayable",
      "type": "constructor"
    },
    {
      "inputs": [],
      "name": "NotOwner",
      "type": "error"
    },
    {
      "stateMutability": "payable",
      "type": "fallback"
    },
    {
      "inputs": [],
      "name": "MIN_USD",
      "outputs": [
        {
          "internalType": "uint256",
          "name": "",
          "type": "uint256"
        }
      ],
      "stateMutability": "view",
      "type": "function"
    },
    {
      "inputs": [
        {
          "internalType": "address",
          "name": "",
          "type": "address"
        }
      ],
      "name": "addressToAmountFunded",
      "outputs": [
        {
          "internalType": "uint256",
          "name": "",
          "type": "uint256"
        }
      ],
      "stateMutability": "view",
      "type": "function"
    },
    {
      "inputs": [],
      "name": "balance",
      "outputs": [
        {
          "internalType": "uint256",
          "name": "",
          "type": "uint256"
        }
      ],
      "stateMutability": "view",
      "type": "function"
    },
    {
      "inputs": [],
      "name": "fund",
      "outputs": [],
      "stateMutability": "payable",
      "type": "function"
    },
    {
      "inputs": [
        {
          "internalType": "uint256",
          "name": "",
          "type": "uint256"
        }
      ],
      "name": "funders",
      "outputs": [
        {
          "internalType": "address",
          "name": "",
          "type": "address"
        }
      ],
      "stateMutability": "view",
      "type": "function"
    },
    {
      "inputs": [],
      "name": "owner",
      "outputs": [
        {
          "internalType": "address",
          "name": "",
          "type": "address"
        }
      ],
      "stateMutability": "view",
      "type": "function"
    },
    {
      "inputs": [],
      "name": "priceFeed",
      "outputs": [
        {
          "internalType": "contract AggregatorV3Interface",
          "name": "",
          "type": "address"
        }
      ],
      "stateMutability": "view",
      "type": "function"
    },
    {
      "inputs": [],
      "name": "withdraw",
      "outputs": [],
      "stateMutability": "nonpayable",
      "type": "function"
    },
    {
      "stateMutability": "payable",
      "type": "receive"
    }
  ],
  "transactionHash": "0x243be497f9fce82709d4cc71049315bbd5ecaa0ca5a2924c6706cd289fff4e1c",
  "args": [
    "0x8A753747A1Fa494EC906cE90E9f37563A8AF630e"
  ],
  "numDeployments": 1,
  "solcInputHash": "fef8ceef80a9c72086607f204dc397b5",
  "bytecode": "0x60a060405234801561001057600080fd5b50604051610fc9380380610fc9833981810160405281019061003291906100c5565b3373ffffffffffffffffffffffffffffffffffffffff1660808173ffffffffffffffffffffffffffffffffffffffff1660601b8152505080600260006101000a81548173ffffffffffffffffffffffffffffffffffffffff021916908373ffffffffffffffffffffffffffffffffffffffff16021790555050610137565b6000815190506100bf81610120565b92915050565b6000602082840312156100d757600080fd5b60006100e5848285016100b0565b91505092915050565b60006100f982610100565b9050919050565b600073ffffffffffffffffffffffffffffffffffffffff82169050919050565b610129816100ee565b811461013457600080fd5b50565b60805160601c610e6d61015c6000396000818161032701526105f10152610e6d6000f3fe60806040526004361061007f5760003560e01c80638da5cb5b1161004e5780638da5cb5b14610142578063b60d42881461016d578063b69ef8a814610177578063dc0d3dff146101a25761008e565b8063213dbea2146100985780633ccfd60b146100c35780633e47d6f3146100da578063741bef1a146101175761008e565b3661008e5761008c6101df565b005b6100966101df565b005b3480156100a457600080fd5b506100ad610319565b6040516100ba9190610a30565b60405180910390f35b3480156100cf57600080fd5b506100d8610325565b005b3480156100e657600080fd5b5061010160048036038101906100fc9190610846565b6105b1565b60405161010e9190610a30565b60405180910390f35b34801561012357600080fd5b5061012c6105c9565b60405161013991906109d5565b60405180910390f35b34801561014e57600080fd5b506101576105ef565b60405161016491906109ba565b60405180910390f35b6101756101df565b005b34801561018357600080fd5b5061018c610613565b6040516101999190610a30565b60405180910390f35b3480156101ae57600080fd5b506101c960048036038101906101c4919061086f565b61061b565b6040516101d691906109ba565b60405180910390f35b674563918244f4000061021d600260009054906101000a900473ffffffffffffffffffffffffffffffffffffffff163461065a90919063ffffffff16565b101561025e576040517f08c379a0000000000000000000000000000000000000000000000000000000008152600401610255906109f0565b60405180910390fd5b6000339080600181540180825580915050600190039060005260206000200160009091909190916101000a81548173ffffffffffffffffffffffffffffffffffffffff021916908373ffffffffffffffffffffffffffffffffffffffff16021790555034600160003373ffffffffffffffffffffffffffffffffffffffff1673ffffffffffffffffffffffffffffffffffffffff16815260200190815260200160002060008282546103109190610a67565b92505081905550565b674563918244f4000081565b7f000000000000000000000000000000000000000000000000000000000000000073ffffffffffffffffffffffffffffffffffffffff163373ffffffffffffffffffffffffffffffffffffffff16146103aa576040517f30cd747100000000000000000000000000000000000000000000000000000000815260040160405180910390fd5b60005b60008054905081101561047b5760008082815481106103f5577f4e487b7100000000000000000000000000000000000000000000000000000000600052603260045260246000fd5b9060005260206000200160009054906101000a900473ffffffffffffffffffffffffffffffffffffffff1690506000600160008373ffffffffffffffffffffffffffffffffffffffff1673ffffffffffffffffffffffffffffffffffffffff1681526020019081526020016000208190555050808061047390610cdf565b9150506103ad565b50600067ffffffffffffffff8111156104bd577f4e487b7100000000000000000000000000000000000000000000000000000000600052604160045260246000fd5b6040519080825280602002602001820160405280156104eb5781602001602082028036833780820191505090505b5060009080519060200190610501929190610736565b5060003373ffffffffffffffffffffffffffffffffffffffff1647604051610528906109a5565b60006040518083038185875af1925050503d8060008114610565576040519150601f19603f3d011682016040523d82523d6000602084013e61056a565b606091505b50509050806105ae576040517f08c379a00000000000000000000000000000000000000000000000000000000081526004016105a590610a10565b60405180910390fd5b50565b60016020528060005260406000206000915090505481565b600260009054906101000a900473ffffffffffffffffffffffffffffffffffffffff1681565b7f000000000000000000000000000000000000000000000000000000000000000081565b600047905090565b6000818154811061062b57600080fd5b906000526020600020016000915054906101000a900473ffffffffffffffffffffffffffffffffffffffff1681565b60008061066683610696565b90506000670de0b6b3a7640000858361067f9190610c05565b6106899190610abd565b9050809250505092915050565b6000808273ffffffffffffffffffffffffffffffffffffffff1663feaf968c6040518163ffffffff1660e01b815260040160a06040518083038186803b1580156106df57600080fd5b505afa1580156106f3573d6000803e3d6000fd5b505050506040513d601f19601f820116820180604052508101906107179190610898565b5050509150506402540be4008161072e9190610aee565b915050919050565b8280548282559060005260206000209081019282156107af579160200282015b828111156107ae5782518260006101000a81548173ffffffffffffffffffffffffffffffffffffffff021916908373ffffffffffffffffffffffffffffffffffffffff16021790555091602001919060010190610756565b5b5090506107bc91906107c0565b5090565b5b808211156107d95760008160009055506001016107c1565b5090565b6000813590506107ec81610ddb565b92915050565b60008151905061080181610df2565b92915050565b60008135905061081681610e09565b92915050565b60008151905061082b81610e09565b92915050565b60008151905061084081610e20565b92915050565b60006020828403121561085857600080fd5b6000610866848285016107dd565b91505092915050565b60006020828403121561088157600080fd5b600061088f84828501610807565b91505092915050565b600080600080600060a086880312156108b057600080fd5b60006108be88828901610831565b95505060206108cf888289016107f2565b94505060406108e08882890161081c565b93505060606108f18882890161081c565b925050608061090288828901610831565b9150509295509295909350565b61091881610c5f565b82525050565b61092781610cbb565b82525050565b600061093a601283610a56565b915061094582610d86565b602082019050919050565b600061095d600083610a4b565b915061096882610daf565b600082019050919050565b6000610980600b83610a56565b915061098b82610db2565b602082019050919050565b61099f81610c9b565b82525050565b60006109b082610950565b9150819050919050565b60006020820190506109cf600083018461090f565b92915050565b60006020820190506109ea600083018461091e565b92915050565b60006020820190508181036000830152610a098161092d565b9050919050565b60006020820190508181036000830152610a2981610973565b9050919050565b6000602082019050610a456000830184610996565b92915050565b600081905092915050565b600082825260208201905092915050565b6000610a7282610c9b565b9150610a7d83610c9b565b9250827fffffffffffffffffffffffffffffffffffffffffffffffffffffffffffffffff03821115610ab257610ab1610d28565b5b828201905092915050565b6000610ac882610c9b565b9150610ad383610c9b565b925082610ae357610ae2610d57565b5b828204905092915050565b6000610af982610c71565b9150610b0483610c71565b9250827f7fffffffffffffffffffffffffffffffffffffffffffffffffffffffffffffff0482116000841360008413161615610b4357610b42610d28565b5b817f80000000000000000000000000000000000000000000000000000000000000000583126000841260008413161615610b8057610b7f610d28565b5b827f80000000000000000000000000000000000000000000000000000000000000000582126000841360008412161615610bbd57610bbc610d28565b5b827f7fffffffffffffffffffffffffffffffffffffffffffffffffffffffffffffff0582126000841260008412161615610bfa57610bf9610d28565b5b828202905092915050565b6000610c1082610c9b565b9150610c1b83610c9b565b9250817fffffffffffffffffffffffffffffffffffffffffffffffffffffffffffffffff0483118215151615610c5457610c53610d28565b5b828202905092915050565b6000610c6a82610c7b565b9050919050565b6000819050919050565b600073ffffffffffffffffffffffffffffffffffffffff82169050919050565b6000819050919050565b600069ffffffffffffffffffff82169050919050565b6000610cc682610ccd565b9050919050565b6000610cd882610c7b565b9050919050565b6000610cea82610c9b565b91507fffffffffffffffffffffffffffffffffffffffffffffffffffffffffffffffff821415610d1d57610d1c610d28565b5b600182019050919050565b7f4e487b7100000000000000000000000000000000000000000000000000000000600052601160045260246000fd5b7f4e487b7100000000000000000000000000000000000000000000000000000000600052601260045260246000fd5b7f4469646e27742073656e6420656e6f7567680000000000000000000000000000600082015250565b50565b7f43616c6c204661696c6564000000000000000000000000000000000000000000600082015250565b610de481610c5f565b8114610def57600080fd5b50565b610dfb81610c71565b8114610e0657600080fd5b50565b610e1281610c9b565b8114610e1d57600080fd5b50565b610e2981610ca5565b8114610e3457600080fd5b5056fea2646970667358221220f2a3b4976f395812c4ec295977dcb08c5febbcb5ca139cd27b5ddbb812c1fbe164736f6c63430008040033",
  "devdoc": {
    "kind": "dev",
    "methods": {},
    "version": 1
  },
  "userdoc": {
    "kind": "user",
    "methods": {},
    "version": 1
  },
  "storageLayout": {
    "storage": [
      {
        "astId": 61,
        "contract": "contracts/FundMe.sol:FundMe",
        "label": "funders",
        "offset": 0,
        "slot": "0",
        "type": "t_array(t_address)dyn_storage"
      },
      {
        "astId": 65,
        "contract": "contracts/FundMe.sol:FundMe",
        "label": "addressToAmountFunded",
        "offset": 0,
        "slot": "1",
        "type": "t_mapping(t_address,t_uint256)"
      },
      {
        "astId": 70,
        "contract": "contracts/FundMe.sol:FundMe",
        "label": "priceFeed",
        "offset": 0,
        "slot": "2",
        "type": "t_contract(AggregatorV3Interface)45"
      }
    ],
    "types": {
      "t_address": {
        "encoding": "inplace",
        "label": "address",
        "numberOfBytes": "20"
      },
      "t_array(t_address)dyn_storage": {
        "base": "t_address",
        "encoding": "dynamic_array",
        "label": "address[]",
        "numberOfBytes": "32"
      },
      "t_contract(AggregatorV3Interface)45": {
        "encoding": "inplace",
        "label": "contract AggregatorV3Interface",
        "numberOfBytes": "20"
      },
      "t_mapping(t_address,t_uint256)": {
        "encoding": "mapping",
        "key": "t_address",
        "label": "mapping(address => uint256)",
        "numberOfBytes": "32",
        "value": "t_uint256"
      },
      "t_uint256": {
        "encoding": "inplace",
        "label": "uint256",
        "numberOfBytes": "32"
      }
    }
  }
}